0200000000001F008GISELE NEVES BERTOZZI                                       07317207926                                                                                                                                                      0000000000metlife@metlife.com.br                                      003410000004567 000034567890  020000000000000000000000000000000000000000000000000          000000000000000000000000                              19650928F008GISELE NEVES BERTOZZI                                       07317207926   003410000004567 000034567890  00000100005000891325500420000100054041040080012030461000025            2022063020230320 000000000000050000 000000000000050000 000000000000000000 000000000000050000 000000000000000000 000000000000050000 000000000000000000 000000000000050000 000000000000000000 000000000000000000 000000000000000000 000000000000000000 000000000000000000BENEFICIO CONCEDIDO PROP. (2030461000025) INVESTMET - VGBL C099855                                                                                                                                                                                             000000000000000000000000000000000000000000000000000000000000000000000000000000000000000000P20220725 000000000000050000003410000004567000034567890000000000000000 000000000000000000 000000000000000000 000000000000000000 000000000000000000 000000000000000000 000000000000000000003PAGO                                                        
0200000000001F008ALESSANDRO FUJITA                                           79414843310                                                                                                                                                      0000000000metlife@metlife.com.br                                      004220000000001 0000012345677 020000000000000000100000000000000000000000000000000          000000000000000000000000                              19861010F008ALESSANDRO FUJITA                                           79414843310   004220000000001 0000012345677 00000100080172311325600250000100054041020080012030339000425            2022071520220720 000000000000100000 000000000000000000 000000000000100000 000000000000100000 000000000000000000 000000000000100000 000000000000000000 000000000000100000 000000000000000000 000000000000000000 000000000000000000 000000000000000000 000000000000000000BENEFICIO CONCEDIDO PROP. (2030339000425) INVESTMET PGBL COL099855                        10                                           1                                                                                                                       000000000000000000000000000000000000000000000000000000000000000000000000000000000000000000P20220725 000000000000100000004220000000001000001234567000000000000000 000000000000000000 000000000000000000 000000000000000000 000000000000000000 000000000000000000 000000000000000000003PAGO                                                        
0200000000001F008AILTON DOS SANTOS ALMEIDA                                   01614191433                                                                                                                                                      0000000000metlife@metlife.com.br                                      002370000000001 0000000012345 020000000000000000000000000000000000000000000000000          000000000000000000000000                              19870610F008AILTON DOS SANTOS ALMEIDA                                   01614191433   002370000000001 0000000012345 00000100080172311325800370000100054011080080012030339000361            2022072020220725 000000000000010000 000000000000000000 000000000000010000 000000000000010000 000000000000000000 000000000000010000 000000000000000000 000000000000010000 000000000000000000 000000000000000000 000000000000000000 000000000000000000 000000000000000000BENEFICIO CONCEDIDO PROP. (2030339000361) INVESTMET PGBL COL099855                        10                                           1                                                                                                                       000000000000000000000000000000000000000000000000000000000000000000000000000000000000000000P20220725 000000000000010000002370000000001000000001234000000000000000 000000000000000000 000000000000000000 000000000000000000 000000000000000000 000000000000000000 000000000000000000003PAGO                                                        
0200000000002F008ALESSANDRO FUJITA                                           79414843310                                                                                                                                                      0000000000metlife@metlife.com.br                                      004220000000001 0000012345677 020000000000000000100000000000000000000000000000000          000000000000000000000000                              19861010F008ALESSANDRO FUJITA                                           79414843310   004220000000001 0000012345677 00000100090172311325600250000100054041020080012030339000425            2022071520220720 000000000000100000 000000000000000000 000000000000100000 000000000000100000 000000000000000000 000000000000100000 000000000000000000 000000000000100000 000000000000000000 000000000000030000 000000000000000000 000000000000000000 000000000000000000BENEFICIO CONCEDIDO PROP. (2030339000425) INVESTMET PGBL COL099855                        10                                           1                                                                                                                       000000000000000000000000000000000000000000000000000000000000000000000000000000000000000000P20220725 000000000000070000004220000000001000001234567000000000000000 000000000000030000 000000000000000000 000000000000000000 000000000000000000 000000000000000000 000000000000000000003PAGO                                                        
